:020000040800F2
:1000000000280020D51A0008651A00086B1A00089D
:10001000711A0008771A00087D1A00080000000015
:10002000000000000000000000000000831A00082B
:100030008F1A0008000000009B1A0008A71A000889
:100040001D1B00081D1B00081D1B00081D1B0008B0
:100050001D1B00081D1B00081D1B00081D1B0008A0
:100060001D1B00081D1B00081D1B00081D1B000890
:100070001D1B00081D1B00081D1B00081D1B000880
:100080001D1B00081D1B00081D1B00081D1B000870
:100090001D1B00081D1B00081D1B00081D1B000860
:1000A0001D1B00081D1B00081D1B00081D1B000850
:1000B000B51A00081D1B0008000000001D1B0008E9
:1000C0001D1B000800000000000000001D1B0008B0
:1000D000000000001D1B00081D1B000800000000A0
:1000E0001D1B00081D1B00081D1B00080000000050
:1000F0000000000000000000000000000000000000
:0C01000000000000000000005FF808F1A3
:10010C0010B5054C237833B9044B13B10448AFF345
:10011C0000800123237010BD74000020000000003B
:10012C004C31000808B5034B1BB103490348AFF32E
:10013C00008008BD00000000780000204C31000851
:10014C0080B582B000AF78607B68092B00F28081AB
:10015C0001A252F823F000BF8D010008D501000860
:10016C001D02000865020008AD020008F502000837
:10017C003D03000885030008CD03000815040008A2
:10018C0000220121C64801F0C6FF00220221C4480A
:10019C0001F0C1FF00220421C14801F0BCFF002284
:1001AC000821BF4801F0B7FF00221021BC4801F024
:1001BC00B2FF00222021BA4801F0ADFF01224021FC
:1001CC00B74801F0A8FF67E101220121B44801F012
:1001DC00A2FF00220221B24801F09DFF002204215F
:1001EC00AF4801F098FF01220821AD4801F093FFC0
:1001FC0001221021AA4801F08EFF01222021A848DB
:10020C0001F089FF01224021A54801F084FF43E160
:10021C0000220121A24801F07EFF00220221A04809
:10022C0001F079FF012204219D4801F074FF0022A6
:10023C0008219B4801F06FFF00221021984801F023
:10024C006AFF01222021964801F065FF002240211F
:10025C00934801F060FF1FE100220121904801F05A
:10026C005AFF002202218E4801F055FF0022042182
:10027C008B4801F050FF00220821894801F04BFF08
:10028C0001221021864801F046FF012220218448DA
:10029C0001F041FF00224021814801F03CFFFBE0CE
:1002AC00012201217E4801F036FF002202217C4808
:1002BC0001F031FF00220421794801F02CFF0122CA
:1002CC000821774801F027FF01221021744801F022
:1002DC0022FF00222021724801F01DFF0022402144
:1002EC006F4801F018FFD7E0002201216C4801F0A3
:1002FC0012FF012202216A4801F00DFF00220421A5
:10030C00674801F008FF00220821654801F003FF4F
:10031C0001221021624801F0FEFE002220216048DB
:10032C0001F0F9FE002240215D4801F0F4FEB3E03B
:10033C00002201215A4801F0EEFE01220221584808
:10034C0001F0E9FE00220421554801F0E4FE0022F0
:10035C000821534801F0DFFE00221021504801F023
:10036C00DAFE002220214E4801F0D5FE0022402169
:10037C004B4801F0D0FE8FE000220121484801F0EB
:10038C00CAFE00220221464801F0C5FE00220421CB
:10039C00434801F0C0FE01220821414801F0BBFE98
:1003AC00012210213E4801F0B6FE012220213C48DA
:1003BC0001F0B1FE01224021394801F0ACFE6BE0A6
:1003CC0000220121364801F0A6FE00220221344809
:1003DC0001F0A1FE00220421314801F09CFE002214
:1003EC0008212F4801F097FE002210212C4801F023
:1003FC0092FE002220212A4801F08DFE002240218D
:10040C00274801F088FE47E000220121244801F032
:10041C0082FE00220221224801F07DFE00220421EE
:10042C001F4801F078FE002208211D4801F073FEE0
:10043C00012210211A4801F06EFE002220211848DA
:10044C0001F069FE00224021154801F064FE23E012
:10045C0001220121124801F05EFE01220221104806
:10046C0001F059FE012204210D4801F054FE012235
:10047C0008210B4801F04FFE01221021084801F021
:10048C004AFE01222021064801F045FE01224021AE
:10049C00034801F040FE00BF00BF0837BD4680BDD9
:1004AC00000C014080B582B000AF78607B68092BEE
:1004BC0000F2BE8101A252F823F000BFF104000843
:1004CC004505000899050008ED05000841060008DF
:1004DC0095060008E90600083D070008910700088A
:1004EC00E507000800228021D04801F014FE00220C
:1004FC004FF48071CD4801F00EFE00224FF40071D4
:10050C00CA4801F008FE00224FF48061C74801F090
:10051C0002FE00224FF40061C44801F0FCFD0022F1
:10052C004FF48051C14801F0F6FD01224FF4005107
:10053C00BE4801F0F0FDA5E101228021BB4801F08D
:10054C00EAFD00224FF48071B84801F0E4FD00226E
:10055C004FF40071B54801F0DEFD01224FF48061CB
:10056C00B24801F0D8FD01224FF40061AF4801F010
:10057C00D2FD01224FF48051AC4801F0CCFD012298
:10058C004FF40051A94801F0C6FD7BE10022802107
:10059C00A64801F0C0FD00224FF48071A34801F081
:1005AC00BAFD01224FF40071A04801F0B4FD002205
:1005BC004FF480619D4801F0AEFD00224FF40061C4
:1005CC009A4801F0A8FD01224FF48051974801F0A0
:1005DC00A2FD00224FF40051944801F09CFD51E122
:1005EC0000228021914801F096FD00224FF4807189
:1005FC008E4801F090FD00224FF400718B4801F001
:10060C008AFD00224FF48061884801F084FD0122AC
:10061C004FF40061854801F07EFD01224FF48051BA
:10062C00824801F078FD00224FF400517F4801F020
:10063C0072FD27E1012280217C4801F06CFD002233
:10064C004FF48071794801F066FD00224FF400717F
:10065C00764801F060FD01224FF48061734801F08F
:10066C005AFD01224FF40061704801F054FD002244
:10067C004FF480516D4801F04EFD00224FF40051B3
:10068C006A4801F048FDFDE000228021674801F036
:10069C0042FD01224FF48071644801F03CFD0022C0
:1006AC004FF40071614801F036FD00224FF4806177
:1006BC005E4801F030FD01224FF400615B4801F00F
:1006CC002AFD00224FF48051584801F024FD0022ED
:1006DC004FF40051554801F01EFDD3E0002280215B
:1006EC00524801F018FD01224FF480714F4801F07F
:1006FC0012FD00224FF400714C4801F00CFD002259
:10070C004FF48061494801F006FD00224FF400616E
:10071C00464801F000FD00224FF48051434801F09F
:10072C00FAFC00224FF40051404801F0F4FCA9E01F
:10073C00002280213D4801F0EEFC00224FF4807134
:10074C003A4801F0E8FC00224FF40071374801F000
:10075C00E2FC01224FF48061344801F0DCFC012200
:10076C004FF40061314801F0D6FC01224FF4805166
:10077C002E4801F0D0FC01224FF400512B4801F01F
:10078C00CAFC7FE000228021284801F0C4FC002232
:10079C004FF48071254801F0BEFC00224FF400712B
:1007AC00224801F0B8FC00224FF480611F4801F090
:1007BC00B2FC00224FF400611C4801F0ACFC00229A
:1007CC004FF48051194801F0A6FC00224FF400515F
:1007DC00164801F0A0FC55E000228021134801F0DE
:1007EC009AFC00224FF48071104801F094FC002216
:1007FC004FF400710D4801F08EFC00224FF4806123
:10080C000A4801F088FC01224FF40061074801F00E
:10081C0082FC00224FF48051044801F07CFC002241
:10082C004FF40051014801F076FC2BE0000C014024
:10083C0001228021154801F06EFC01224FF48071D9
:10084C00124801F068FC01224FF400710F4801F0CE
:10085C0062FC01224FF480610C4801F05CFC012227
:10086C004FF40061094801F056FC01224FF480510D
:10087C00064801F050FC01224FF40051034801F0EE
:10088C004AFC00BF00BF0837BD4680BD000C0140CC
:10089C0080B582B000AF78607B68002B03D07B689A
:1008AC00012B0BD015E000220221114801F033FC82
:1008BC00012204210E4801F02EFC15E00122022138
:1008CC000B4801F028FC00220421094801F023FC0C
:1008DC000AE001220221064801F01DFC012204213C
:1008EC00034801F018FC00BF00BF0837BD4680BDAF
:1008FC000008014080B582B000AF78607B68002BA7
:10090C0003D07B68012B0BD015E000220821114885
:10091C0001F001FC012210210E4801F0FCFB15E056
:10092C00012208210B4801F0F6FB00221021094896
:10093C0001F0F1FB0AE001220821064801F0EBFB73
:10094C0001221021034801F0E6FB00BF00BF08376D
:10095C00BD4680BD0008014080B483B000AF786014
:10096C007B68134A82FB03129210DB17D11A104BCF
:10097C0083FB01239A10CB17D21A13469B00134406
:10098C005B00CA1A0B4B1A607968094B83FB012375
:10099C009A10CB17D21A13469B0013445B00CA1A49
:1009AC00044B5A6000BF0C37BD4680BC704700BF7B
:1009BC0067666666B000002080B483B000AF7860D4
:1009CC007B68134A82FB03129210DB17D11A104B6F
:1009DC0083FB01239A10CB17D21A13469B001344A6
:1009EC005B00CA1A0B4B1A607968094B83FB012315
:1009FC009A10CB17D21A13469B0013445B00CA1AE9
:100A0C00044B5A6000BF0C37BD4680BC704700BF1A
:100A1C0067666666A800002080B483B000AF78607B
:100A2C00094A7B6852F82330012B06D1064A7B68B1
:100A3C00002142F82310012300E0002318460C3754
:100A4C00BD4680BC704700BF9000002080B483B0CE
:100A5C0000AF7860044A7B68012142F8231000BF84
:100A6C000C37BD4680BC70479000002080B582B02A
:100A7C0000AF7860374A7B6852F8232036497B6890
:100A8C0041F82320354A7B6852F8232031497B6892
:100A9C0041F82320324A7B6852F8232031497B6885
:100AAC0031F813301946104601F01EFB0346194667
:100ABC002A4A7B6842F82310274A7B6852F8232085
:100ACC0024497B6851F823309A423ED1214A7B68F5
:100ADC0052F8232021497B6851F823309A4234D1B3
:100AEC00214A7B6852F823201C497B6851F823303B
:100AFC009A4216D0194A7B6852F823201A497B680F
:100B0C0041F82320154A7B6852F82330002B1CD166
:100B1C007868FFF79BFF154A7B680A2142F823107F
:100B2C0013E0124A7B6852F823305A1E0F497B6837
:100B3C0041F823200D4A7B6852F82330002B04DC4B
:100B4C00094A7B68012142F8231000BF0837BD46D3
:100B5C0080BD00BF20000020140000202C000020CD
:100B6C00000000200C000020380000204400002071
:100B7C0080B500AF0020FFF779FF0120FFF776FF6B
:100B8C000220FFF773FF00BF80BD000080B500AFEF
:100B9C00074B1B68002B09DD054B1B68013B044A06
:100BAC001360034B1B681846FFF706FF00BF80BDA0
:100BBC00BC00002080B500AF074B1B68002B09DD83
:100BCC00054B1B68013B044A1360034B1B6818461A
:100BDC00FFF7C2FE00BF80BDC000002080B500AF93
:100BEC000C4B1B680C4A52F823301846FFF7A8FA36
:100BFC00084B1B681846FFF74BFE064B1B6801336E
:100C0C00002B03F00103B8BF5B42024A136000BF24
:100C1C0080BD00BFA0000020A800002080B500AF60
:100C2C000C4B1B680C4A52F823301846FFF73AFC61
:100C3C00084B1B681846FFF75DFE064B1B6801331B
:100C4C00002B03F00103B8BF5B42024A136000BFE4
:100C5C0080BD00BFA4000020B000002080B483B091
:100C6C0000AF7860034A7B68136000BF0C37BD4649
:100C7C0080BC70475800002080B500AF0D4B1B683E
:100C8C000D4A52F823301846FFF75AFA094B1B68E5
:100C9C001846FFF7FDFD074B1B680133054A13602F
:100CAC00044B1B68012B02DD024B00221A6000BFB3
:100CBC0080BD00BFA0000020A800002080B500AFC0
:100CCC000D4B1B680D4A52F823301846FFF7EAFB10
:100CDC00094B1B681846FFF70DFE074B1B680133C9
:100CEC00054A1360044B1B68012B02DD024B0022EA
:100CFC001A6000BF80BD00BFA4000020B00000201F
:100D0C0080B582B000AF78603960164B00221A6053
:100D1C00144A7B6853603968134B83FB01239A1088
:100D2C00CB17D21A13469B0013445B00CA1A0F4B05
:100D3C005A603B680C4A82FB03129210DB17D31AE1
:100D4C000A4A13604FF496720021094800F0D6FD50
:100D5C004FF496720021074800F0D0FD00BF083711
:100D6C00BD4680BDA800002067666666B000002006
:100D7C00850C0008C90C000880B500AFAA4B1B6895
:100D8C000A3B0A2B00F2F68101A252F823F000BFB5
:100D9C00C90D0008290E0008870F0008D90F00089C
:100DAC006D100008D7100008051100085311000839
:100DBC00C7100008431100083311000800F00AFAAC
:100DCC0000F020FA994B00221A60984B00225A60CE
:100DDC00974B00225A60964B00221A604FF4967281
:100DEC000021944800F08AFD4FF49672002192483D
:100DFC0000F084FD0A220021904800F07FFD0020C5
:100E0C00FFF70AFE0346012B40F0B6818C4B1B68A2
:100E1C008C4A13600B20FFF721FFADE1FFF7B6FE04
:100E2C00FFF7DCFE884B1B68013B032B43D801A268
:100E3C0052F823F0510E0008650E0008810E0008D0
:100E4C009D0E000800F0AEF97D4B1B687F4A1360C5
:100E5C007D4B02221A602EE000F004FA7B4B1B68DB
:100E6C00002B23D17A4B1B68784A1360764B0322F4
:100E7C001A601BE000F00EFA744B1B68002B17D1A4
:100E8C00744B1B68714A13606F4B04221A600FE09D
:100E9C0000F018FA6D4B1B68002B0BD1684B1B68CC
:100EAC006A4A1360684B02221A6003E000BF02E03A
:100EBC0000BF00E000BFFFF77DFEFFF7AFFE664B03
:100ECC001B68013B032B44D801A252F823F000BF4E
:100EDC00ED0E0008010F00081D0F0008390F000867
:100EEC0000F0A8F95A4B1B685C4A13605A4B03225A
:100EFC001A602EE000F0FEF9584B1B68002B23D132
:100F0C00534B1B68554A1360534B03221A601BE06A
:100F1C0000F008FA514B1B68002B17D14D4B1B6886
:100F2C004E4A13604C4B04221A600FE000F012FA88
:100F3C004A4B1B68002B0BD1414B1B68474A136073
:100F4C00454B02221A6003E000BF02E000BF00E044
:100F5C0000BF0A220021394800F0D0FC0020FFF726
:100F6C005BFD0346012B40F00981354B1B68354A6C
:100F7C0013602D4B0C221A6000E1324B1B68194692
:100F8C000220FFF7BDFE00F0FDF90020FFF744FD45
:100F9C000346012B06D12F4B1B682A4A13600D20E8
:100FAC00FFF75CFE0120FFF737FD0346012B02D152
:100FBC000F20FFF753FE0220FFF72EFD0346012BF7
:100FCC0040F0DE801220FFF749FED9E01D4B1B6874
:100FDC0019460320FFF794FE0A220021174800F05F
:100FEC008DFC0020FFF718FD0346012B06D1184B92
:100FFC001B68144A13600E20FFF730FE0120FFF728
:10100C000BFD0346012B02D11020FFF727FE022017
:10101C00FFF702FD0346012B02D11420FFF71EFE41
:10102C0000F0D8F9AFE000BF58000020A800002065
:10103C00B0000020850C0008C90C00087D0B0008CE
:10104C005C0000209C00002050000020BC00002010
:10105C00640000206000002054000020C00000202C
:10106C0000F0E0F9494B1B6819460420FFF748FED5
:10107C000A220021464800F041FC0020FFF7CCFC7E
:10108C000346012B06D1434B1B68404A13600A20D0
:10109C00FFF7E4FD0120FFF7BFFC0346012B02D153
:1010AC001120FFF7DBFD0220FFF7B6FC0346012BF6
:1010BC0068D11320FFF7D2FD64E0344B1B68354A2E
:1010CC0013600C20FFF7CAFD5DE0304B1B68013349
:1010DC002E4A13602D4B1A682F4B83FB02135911A8
:1010EC00D317CB1A642101FB03F3D31A274A1360DD
:1010FC000C20FFF7B3FD46E0244B1B680133234A59
:10110C001360224B1A68244B83FB02135911D3171B
:10111C00CB1A642101FB03F3D31A1C4A13600D2074
:10112C00FFF79CFD2FE0194B1B681C4A13600D2028
:10113C00FFF794FD27E0154B1B68194A13600E202E
:10114C00FFF78CFD1FE0114B1B6801330F4A136036
:10115C000E4B1A68104B83FB02135911D317CB1A81
:10116C00642101FB03F3D31A084A13600E20FFF726
:10117C0075FD08E000BF06E000BF04E000BF02E020
:10118C0000BF00E000BF00BF80BD00BF9C0000207E
:10119C007D0B00085C0000201F85EB5160000020D7
:1011AC006400002080B500AF01224FF48061084834
:1011BC0000F0B1FF01224FF40061054800F0ABFFD5
:1011CC0001224FF48051024800F0A5FF00BF80BD02
:1011DC000008014080B500AF00224FF48061084840
:1011EC0000F099FF00224FF40061054800F093FFD6
:1011FC0000224FF48051024800F08DFF00BF80BDEB
:10120C000008014080B500AF00224FF4005108489F
:10121C0000F081FF00224FF48041054800F07BFF75
:10122C0000224FF40041024800F075FF00BF80BD62
:10123C000008014080B500AF01224FF4005108486E
:10124C0000F069FF01224FF48041054800F063FF74
:10125C0001224FF40041024800F05DFF00BF80BD49
:10126C000008014080B500AF00224FF480610848AF
:10127C0000F051FF01224FF40061054800F04BFFD4
:10128C0001224FF48051024800F045FF00BF80BDA1
:10129C000008014080B500AF01224FF4806108487E
:1012AC0000F039FF00224FF40061054800F033FFD5
:1012BC0001224FF48051024800F02DFF00BF80BD89
:1012CC000008014080B500AF01224FF4806108484E
:1012DC0000F021FF01224FF40061054800F01BFFD4
:1012EC0000224FF48051024800F015FF00BF80BD72
:1012FC000008014080B500AF00224FF400510848AF
:10130C0000F009FF01224FF48041054800F003FF73
:10131C0001224FF40041024800F0FDFE00BF80BDE9
:10132C000008014080B500AF01224FF4005108487D
:10133C0000F0F1FE00224FF48041054800F0EBFE76
:10134C0001224FF40041024800F0E5FE00BF80BDD1
:10135C000008014080B500AF01224FF4005108484D
:10136C0000F0D9FE01224FF48041054800F0D3FE75
:10137C0000224FF40041024800F0CDFE00BF80BDBA
:10138C000008014080B500AF4FF40051104800F048
:10139C00DAFE4FF480610E4800F0D5FE01224FF4C6
:1013AC0000610B4800F0B7FE01224FF48041084861
:1013BC0000F0B1FE01224FF48051054800F0ABFE65
:1013CC0001224FF40041024800F0A5FE00BF80BD91
:1013DC000008014080B500AF4FF40041104800F008
:1013EC00B2FE4FF480510E4800F0ADFE01224FF4D6
:1013FC0080610B4800F08FFE01224FF40051084829
:10140C0000F089FE01224FF40061054800F083FED4
:10141C0001224FF48041024800F07DFE00BF80BDE8
:10142C000008014080B500AF4FF48041104800F037
:10143C008AFE4FF400610E4800F085FE01224FF445
:10144C0080510B4800F067FE01224FF40041084820
:10145C0000F061FE01224FF48061054800F05BFE54
:10146C0001224FF40051024800F055FE00BF80BD30
:10147C000008014080B500AF00F04CFB00F01EF8F6
:10148C0000F058F800F0A2F8094801F0A1FA00F0B9
:10149C0011F90A220021074800F030FA4FF47A7251
:1014AC000021054800F02AFA00F0C4F9FCE700BF5F
:1014BC00C40000207D0B0008850D000880B590B09D
:1014CC0000AF07F1180328220021184601F030FE66
:1014DC003B1D00221A605A609A60DA601A6102237E
:1014EC00BB610123BB621023FB6200237B6307F10A
:1014FC001803184600F040FE0346002B01D000F004
:10150C00D3F80F237B600023BB600023FB60002318
:10151C003B6100237B613B1D0021184601F0ACF8B8
:10152C000346002B01D000F0BFF800BF4037BD468A
:10153C0080BD000080B586B000AF07F10803002223
:10154C001A605A609A60DA603B4600221A605A6050
:10155C001D4B4FF080421A601B4B41F63F725A6094
:10156C00194B00229A60184B0922DA60164B0022A4
:10157C001A61154B00229A61134801F0D9F9034600
:10158C00002B01D000F090F84FF48053BB6007F1B2
:10159C00080319460C4801F057FB0346002B01D0F9
:1015AC0000F082F800233B6000237B603B46194629
:1015BC00054801F02FFD0346002B01D000F074F814
:1015CC0000BF1837BD4680BDC400002080B586B072
:1015DC0000AF07F1080300221A605A609A60DA60C3
:1015EC00294B9B69284A43F004039361264B9B6962
:1015FC0003F004037B607B68234B9B69224A43F016
:10160C0008039361204B9B6903F008033B603B6824
:10161C0000224FF61E411D4800F07DFD002243F6CE
:10162C00FF711B4800F077FD4FF61E43BB60012392
:10163C00FB6000233B6102237B6107F10803194621
:10164C00124800F0D7FB4FF4E073BB600023FB6043
:10165C0001233B6107F1080319460C4800F0CAFB53
:10166C0043F6FF73BB600123FB6000233B61022345
:10167C007B6107F108031946054800F0BBFB00BF6E
:10168C001837BD4680BD00BF001002400008014065
:10169C00000C014080B582B000AF786000F050F8CB
:1016AC0000BF0837BD4680BD80B400AF72B600BF26
:1016BC00FEE7000080B483B000AF0023FB7133E081
:1016CC00FA791E4913469B0013449B000B440022DD
:1016DC001A60FA79F979194813469B0013449B0058
:1016EC00034410331960FA79144913469B001344D0
:1016FC009B000B44043300221A60FA790F491346FD
:10170C009B0013449B000B44083300221A60FA79A7
:10171C000A4913469B0013449B000B440C330022D4
:10172C001A70FB790133FB71FB79132BC8D900BFFD
:10173C0000BF0C37BD4680BC704700BF0C010020B9
:10174C0080B483B000AF0023FB7167E0FA793849AD
:10175C0013469B0013449B000B441B68002B5AD070
:10176C00FA79334913469B0013449B000B44043312
:10177C001B68002B12D0FA792D4913469B00134499
:10178C009B000B4404331B68FA79591E28481346F6
:10179C009B0013449B00034404331960FA792449D9
:1017AC0013469B0013449B000B4404331B68002B13
:1017BC0031D1FA791E4913469B0013449B000B440C
:1017CC000C331B78FA790133D8B2194913469B00B4
:1017DC0013449B000B440C3302461A70FA791449DB
:1017EC0013469B0013449B000B4408331B68002BCF
:1017FC0011D0F979FA790E480B469B000B449B00EB
:10180C000344083319680A4813469B0013449B0091
:10181C00034404331960FB790133FB71FB79132BFF
:10182C0094D900BF00BF0C37BD4680BC704700BFC9
:10183C000C01002080B582B000AF0023FB7153E097
:10184C00FA792D4913469B0013449B000B440C332F
:10185C001B78002B45D0FA79274913469B0013447B
:10186C009B000B441B689847FA79234913469B004D
:10187C0013449B000B440C331B78FA79013BD8B210
:10188C001D4913469B0013449B000B440C3302462A
:10189C001A70FA79184913469B0013449B000B44A9
:1018AC0008331B68002B1CD1FA79134913469B0093
:1018BC0013449B000B4400221A60FA790E4913461C
:1018CC009B0013449B000B44043300221A60FA79EA
:1018DC00094913469B0013449B000B440C33002214
:1018EC001A70FB790133FB71FB79132BA8D900BF5C
:1018FC0000BF0837BD4680BD0C01002080B487B006
:10190C0000AFF860B9607A600023FB7502E0FB7DE4
:10191C000133FB75FB7D132B09D8FA7D2049134647
:10192C009B0013449B000B441B68002BEFD1FB7DE9
:10193C00142B04D11B4B15221A7014232BE0FA7DA7
:10194C00174913469B0013449B000B44FA681A601A
:10195C00FA7D134913469B0013449B000B4404333C
:10196C00BA681A60FA7D7B680F49A1FB0313D9088A
:10197C000B4813469B0013449B0003440833196027
:10198C00FA7D074913469B0013449B000B440C3310
:10199C0000221A70FB7D18461C37BD4680BC704770
:1019AC000C010020B8000020CDCCCCCC80B485B08C
:1019BC0000AF154B9B69144A43F001039361124B22
:1019CC009B6903F00103BB60BB680F4BDB690E4ADC
:1019DC0043F08053D3610C4BDB6903F080537B6085
:1019EC007B680A4B5B68FB60FB6823F0E063FB6081
:1019FC00FB6843F08063FB60044AFB68536000BFE4
:101A0C001437BD4680BC70470010024000000140F6
:101A1C0080B584B000AF78607B681B68B3F1804FF1
:101A2C0013D10C4BDB690B4A43F00103D361094B17
:101A3C00DB6903F00103FB60FB68002200211C2022
:101A4C0000F0A1F91C2000F0BAF900BF1037BD4618
:101A5C0080BD00BF0010024080B400AFFEE780B430
:101A6C0000AFFEE780B400AFFEE780B400AFFEE746
:101A7C0080B400AFFEE780B400AF00BFBD4680BCB1
:101A8C00704780B400AF00BFBD4680BC704780B4C7
:101A9C0000AF00BFBD4680BC704780B500AF00F002
:101AAC007FF800BF80BD000080B500AF024800F099
:101ABC00DBFF00BF80BD00BFC400002080B400AFBE
:101ACC0000BFBD4680BC7047FFF7F8FF0B480C49C0
:101ADC000C4A002302E0D458C4500433C4188C427E
:101AEC00F9D3094A094C002301E013600432A242E5
:101AFC00FBD301F0F9FAFFF7BDFC704700000020A2
:101B0C00740000209031000874000020A002002016
:101B1C00FEE7000080B500AF084B1B68074A43F096
:101B2C0010031360032000F023F90F2000F008F8D5
:101B3C00FFF73CFF0023184680BD00BF0020024089
:101B4C0080B582B000AF7860124B1A68124B1B78CC
:101B5C0019464FF47A73B3FBF1F3B2FBF3F3184667
:101B6C0000F03BF90346002B01D001230EE07B680B
:101B7C000F2B0AD8002279684FF0FF3000F003F9E0
:101B8C00064A7B681360002300E0012318460837DF
:101B9C00BD4680BD68000020700000206C00002055
:101BAC0080B400AF054B1B781A46054B1B681344D9
:101BBC00034A136000BFBD4680BC70477000002014
:101BCC009C02002080B400AF024B1B681846BD4637
:101BDC0080BC70479C02002080B485B000AF786058
:101BEC007B6803F00703FB600C4BDB68BB60BA68D7
:101BFC004FF6FF031340BB60FB681A02BB6813432C
:101C0C0043F0BF6343F40033BB60044ABB68D3604A
:101C1C0000BF1437BD4680BC704700BF00ED00E02C
:101C2C0080B400AF044BDB681B0A03F007031846B3
:101C3C00BD4680BC704700BF00ED00E080B483B0AF
:101C4C0000AF0346FB7197F90730002B0BDBFB79D8
:101C5C0003F01F02064997F907305B09012000FACF
:101C6C0002F241F8232000BF0C37BD4680BC704700
:101C7C0000E100E080B483B000AF03463960FB7133
:101C8C0097F90730002B0ADB3B68DAB20C4997F95D
:101C9C0007301201D2B20B4483F800230AE03B68F0
:101CAC00DAB20849FB7903F00F03043B1201D2B2FC
:101CBC000B441A7600BF0C37BD4680BC704700BF82
:101CCC0000E100E000ED00E080B489B000AFF86006
:101CDC00B9607A60FB6803F00703FB61FB69C3F131
:101CEC000703042B28BF0423BB61FB690433062BB9
:101CFC0002D9FB69033B00E000237B614FF0FF320C
:101D0C00BB6902FA03F3DA43BB681A407B699A4059
:101D1C004FF0FF317B6901FA03F3D9437B680B4029
:101D2C00134318462437BD4680BC704780B582B03B
:101D3C0000AF78607B68013BB3F1807F01D3012356
:101D4C000FE00A4A7B68013B53600F214FF0FF30D4
:101D5C00FFF790FF054B00229A60044B07221A6094
:101D6C00002318460837BD4680BD00BF10E000E0D8
:101D7C0080B582B000AF78607868FFF72DFF00BFA8
:101D8C000837BD4680BD80B586B000AF0346B9604C
:101D9C007A60FB7300237B61FFF742FF78617A68FE
:101DAC00B9687869FFF790FF024697F90F30114632
:101DBC001846FFF75FFF00BF1837BD4680BD80B5E2
:101DCC0082B000AF0346FB7197F907301846FFF756
:101DDC0035FF00BF0837BD4680BD80B582B000AF6F
:101DEC0078607868FFF7A2FF034618460837BD46AF
:101DFC0080BD000080B48BB000AF786039600023E8
:101E0C007B6200233B6248E101227B6A02FA03F306
:101E1C00FB613B681B68FA691340BB61BA69FB69DB
:101E2C009A4240F037813B685B68A34A93425ED08C
:101E3C00A14A934275D8A14A934258D09F4A9342E3
:101E4C006FD89F4A934252D09D4A934269D89D4A7B
:101E5C0093424CD09B4A934263D89B4A934246D0C0
:101E6C00994A93425DD8122B2AD8122B59D801A229
:101E7C0052F823F0FB1E0008D51E0008E71E0008D0
:101E8C00291F00082F1F00082F1F00082F1F0008F4
:101E9C002F1F00082F1F00082F1F00082F1F0008DE
:101EAC002F1F00082F1F00082F1F00082F1F0008CE
:101EBC002F1F00082F1F0008DD1E0008F11E000850
:101ECC00824A934213D02CE03B68DB683B6229E0EA
:101EDC003B68DB6804333B6224E03B68DB68083317
:101EEC003B621FE03B68DB680C333B621AE03B68EB
:101EFC009B68002B02D104233B6213E03B689B6878
:101F0C00012B05D108233B627B68FA691A6109E051
:101F1C0008233B627B68FA695A6103E000233B6249
:101F2C0000E000BFBB69FF2B01D87B6801E07B6838
:101F3C0004337B61BB69FF2B02D87B6A9B0002E0F8
:101F4C007B6A083B9B003B617B691A680F213B69EC
:101F5C0001FA03F3DB431A40396A3B6901FA03F3D4
:101F6C001A437B691A603B685B6803F08053002B53
:101F7C0000F09080564B9B69554A43F001039361E6
:101F8C00534B9B6903F00103BB60BB68514A7B6AEE
:101F9C009B08023352F82330FB607B6A03F0030387
:101FAC009B000F2202FA03F3DB43FA681340FB6039
:101FBC007B68494A93420DD07B68484A934207D0CC
:101FCC007B68474A934201D1022304E0032302E0D9
:101FDC00012300E000237A6A02F00302920093408E
:101FEC00FA681343FB603B497B6A9B080233FA682F
:101FFC0041F823203B685B6803F48013002B06D068
:10200C00384B9A683749BB6913438B6006E0354BF4
:10201C009A68BB69DB43334913408B603B685B6850
:10202C0003F40013002B06D02E4BDA682D49BB6944
:10203C001343CB6006E02B4BDA68BB69DB432949C1
:10204C001340CB603B685B6803F40033002B06D075
:10205C00244B5A682349BB6913434B6006E0214B60
:10206C005A68BB69DB431F4913404B603B685B6894
:10207C0003F48033002B06D01A4B1A681949BB693C
:10208C0013430B6006E0174B1A68BB69DB43154919
:10209C0013400B607B6A01337B623B681A687B6A76
:1020AC0022FA03F3002B7FF4AFAE00BF00BF2C3736
:1020BC00BD4680BC704700BF0000321000003110DC
:1020CC00000022100000211000001210000011105E
:1020DC00001002400000014000080140000C0140CB
:1020EC00001001400004014080B485B000AF78605E
:1020FC000B467B807B689A687B881340002B02D050
:10210C000123FB7301E00023FB73FB7B18461437A0
:10211C00BD4680BC704780B483B000AF78600B467E
:10212C007B8013467B707B78002B03D07A887B688E
:10213C001A6103E07B881A047B681A6100BF0C37B4
:10214C00BD4680BC704780B485B000AF78600B464C
:10215C007B807B68DB68FB607A88FB6813401A0421
:10216C00FB68D9437B880B401A437B681A6100BF1C
:10217C001437BD4680BC704780B586B000AF786020
:10218C007B68002B01D101236CE27B681B6803F098
:10219C000103002B00F08780924B5B6803F00C036B
:1021AC00042B0CD08F4B5B6803F00C03082B12D163
:1021BC008C4B5B6803F48033B3F5803F0BD1894BB8
:1021CC001B6803F40033002B6CD07B685B68002B1E
:1021DC0068D1012346E27B685B68B3F5803F06D18A
:1021EC00804B1B687F4A43F4803313602EE07B687E
:1021FC005B68002B0CD17B4B1B687A4A23F4803331
:10220C001360784B1B68774A23F4802313601DE01E
:10221C007B685B68B3F5A02F0CD1724B1B68714ABD
:10222C0043F4802313606F4B1B686E4A43F4803376
:10223C0013600BE06B4B1B686A4A23F4803313600A
:10224C00684B1B68674A23F4802313607B685B68C8
:10225C00002B13D0FFF7B6FC386108E0FFF7B2FC97
:10226C0002463B69D31A642B01D90323FAE15D4B77
:10227C001B6803F40033002BF0D014E0FFF7A2FC32
:10228C00386108E0FFF79EFC02463B69D31A642BC9
:10229C0001D90323E6E1534B1B6803F40033002BF5
:1022AC00F0D100E000BF7B681B6803F00203002B39
:1022BC0063D04C4B5B6803F00C03002B0BD0494BE9
:1022CC005B6803F00C03082B1CD1464B5B6803F4D2
:1022DC008033002B16D1434B1B6803F00203002BF9
:1022EC0005D07B681B69012B01D00123BAE13D4B62
:1022FC001B6823F0F8027B685B69DB0039491343E8
:10230C000B603AE07B681B69002B20D0364B012216
:10231C001A60FFF757FC386108E0FFF753FC0246E0
:10232C003B69D31A022B01D903239BE12D4B1B686C
:10233C0003F00203002BF0D02A4B1B6823F0F802A9
:10234C007B685B69DB00274913430B6015E0264B68
:10235C0000221A60FFF736FC386108E0FFF732FC08
:10236C0002463B69D31A022B01D903237AE11D4B98
:10237C001B6803F00203002BF0D17B681B6803F091
:10238C000803002B3AD07B689B69002B19D0174BA4
:10239C0001221A60FFF716FC386108E0FFF712FC07
:1023AC0002463B69D31A022B01D903235AE10D4B88
:1023BC005B6A03F00203002BF0D0012000F09AFAC4
:1023CC001CE00A4B00221A60FFF7FCFB38610FE09F
:1023DC00FFF7F8FB02463B69D31A022B08D90323FB
:1023EC0040E100BF00100240000042428004424223
:1023FC009E4B5B6A03F00203002BE9D17B681B68E0
:10240C0003F00403002B00F0A6800023FB75974B10
:10241C00DB6903F08053002B0DD1944BDB69934A9D
:10242C0043F08053D361914BDB6903F08053BB6065
:10243C00BB680123FB758E4B1B6803F48073002B68
:10244C0018D18B4B1B688A4A43F480731360FFF7D7
:10245C00B9FB386108E0FFF7B5FB02463B69D31ABC
:10246C00642B01D90323FDE0814B1B6803F48073BB
:10247C00002BF0D07B68DB68012B06D17B4B1B6AF1
:10248C007A4A43F0010313622DE07B68DB68002B72
:10249C000CD1764B1B6A754A23F001031362734B04
:1024AC001B6A724A23F0040313621CE07B68DB682E
:1024BC00052B0CD16D4B1B6A6C4A43F00403136261
:1024CC006A4B1B6A694A43F0010313620BE0674BCA
:1024DC001B6A664A23F001031362644B1B6A634A4E
:1024EC0023F0040313627B68DB68002B15D0FFF725
:1024FC0069FB38610AE0FFF765FB02463B69D31ABA
:10250C0041F28832934201D90323ABE0574B1B6A4B
:10251C0003F00203002BEED014E0FFF753FB3861FD
:10252C000AE0FFF74FFB02463B69D31A41F28832AF
:10253C00934201D9032395E04C4B1B6A03F0020331
:10254C00002BEED1FB7D012B05D1484BDB69474AB3
:10255C0023F08053D3617B68DB69002B00F0818012
:10256C00424B5B6803F00C03082B61D07B68DB6982
:10257C00022B46D13F4B00221A60FFF723FB386138
:10258C0008E0FFF71FFB02463B69D31A022B01D967
:10259C00032367E0354B1B6803F00073002BF0D16D
:1025AC007B681B6AB3F5803F08D1304B5B6823F422
:1025BC0000327B689B682D4913434B602B4B5B6847
:1025CC0023F474127B68196A7B685B6A0B43274996
:1025DC0013434B60274B01221A60FFF7F3FA386163
:1025EC0008E0FFF7EFFA02463B69D31A022B01D938
:1025FC00032337E01D4B1B6803F00073002BF0D056
:10260C002FE01C4B00221A60FFF7DCFA386108E05F
:10261C00FFF7D8FA02463B69D31A022B01D90323E0
:10262C0020E0124B1B6803F00073002BF0D118E074
:10263C007B68DB69012B01D1012313E00B4B5B6839
:10264C00FB60FB6803F480327B681B6A9A4206D1FC
:10265C00FB6803F470127B685B6A9A4201D0012319
:10266C0000E0002318461837BD4680BD001002401C
:10267C00007000406000424280B584B000AF7860CA
:10268C0039607B68002B01D10123D0E06A4B1B68B9
:10269C0003F007033A689A4210D9674B1B6823F082
:1026AC00070265493B6813430B60634B1B6803F0DF
:1026BC0007033A689A4201D00123B8E07B681B6893
:1026CC0003F00203002B20D07B681B6803F004038B
:1026DC00002B05D0594B5B68584A43F4E0635360B8
:1026EC007B681B6803F00803002B05D0534B5B6819
:1026FC00524A43F460535360504B5B6823F0F00232
:10270C007B689B684D4913434B607B681B6803F0E7
:10271C000103002B40D07B685B68012B07D1474B32
:10272C001B6803F40033002B15D101237FE07B6879
:10273C005B68022B07D1414B1B6803F00073002B25
:10274C0009D1012373E03D4B1B6803F00203002BFE
:10275C0001D101236BE0394B5B6823F003027B68EA
:10276C005B68364913434B60FFF72CFAF8600AE0BC
:10277C00FFF728FA0246FB68D31A41F288329342DB
:10278C0001D9032353E02D4B5B6803F00C027B68EB
:10279C005B689B009A42EBD1274B1B6803F0070345
:1027AC003A689A4210D2244B1B6823F00702224944
:1027BC003B6813430B60204B1B6803F007033A681C
:1027CC009A4201D0012332E07B681B6803F00403BA
:1027DC00002B08D0194B5B6823F4E0627B68DB6844
:1027EC00164913434B607B681B6803F00803002BEE
:1027FC0009D0124B5B6823F460527B681B69DB00C9
:10280C000E4913434B6000F021F802460B4B5B68FA
:10281C001B0903F00F030A49CB5C22FA03F3094AA4
:10282C001360094B1B681846FFF78AF900231846FA
:10283C001037BD4680BD00BF002002400010024092
:10284C0064310008680000206C00002080B487B060
:10285C0000AF0023FB600023BB6000237B610023DF
:10286C007B6000233B611E4B5B68FB60FB6803F0E5
:10287C000C03042B02D0082B03D027E0194B3B612F
:10288C0027E0FB689B0C03F00F03174AD35C7B60BB
:10289C00FB6803F48033002B10D0114B5B685B0C8E
:1028AC0003F00103114AD35CBB607B680D4A02FB49
:1028BC0003F2BB68B2FBF3F37B6104E07B680C4A68
:1028CC0002FB03F37B617B693B6102E0054B3B61DF
:1028DC0000BF3B6918461C37BD4680BC704700BF23
:1028EC000010024000127A00743100088431000894
:1028FC0000093D0080B485B000AF78600A4B1B68BE
:10290C000A4AA2FB03235B0A7A6802FB03F3FB600F
:10291C0000BFFB685A1EFA60002BF9D100BF00BF44
:10292C001437BD4680BC704768000020D34D621040
:10293C0080B582B000AF78607B68002B01D1012399
:10294C0041E07B6893F83D30DBB2002B06D17B680D
:10295C00002283F83C207868FFF75AF87B68022243
:10296C0083F83D207B681A687B680433194610464F
:10297C0000F056FA7B68012283F846207B6801221E
:10298C0083F83E207B68012283F83F207B6801227C
:10299C0083F840207B68012283F841207B68012268
:1029AC0083F842207B68012283F843207B68012254
:1029BC0083F844207B68012283F845207B68012240
:1029CC0083F83D20002318460837BD4680BD000023
:1029DC0080B485B000AF78607B6893F83D30DBB293
:1029EC00012B01D0012335E07B68022283F83D20C6
:1029FC007B681B68DA687B681B6842F00102DA604E
:102A0C007B681B68164A934209D07B681B68B3F13C
:102A1C00804F04D07B681B68124A934211D17B68AB
:102A2C001B689B6803F00703FB60FB68062B10D048
:102A3C007B681B681A687B681B6842F001021A608D
:102A4C0007E07B681B681A687B681B6842F0010210
:102A5C001A60002318461437BD4680BC704700BF6F
:102A6C00002C01400004004080B584B000AF7860B9
:102A7C007B681B68DB68FB607B681B681B69BB6041
:102A8C00BB6803F00203002B20D0FB6803F00203A9
:102A9C00002B1BD07B681B686FF002021A617B68ED
:102AAC0001221A777B681B689B6903F00303002BD8
:102ABC0003D0786800F098F905E0786800F08BF99D
:102ACC00786800F09AF97B6800221A77BB6803F0EB
:102ADC000403002B20D0FB6803F00403002B1BD055
:102AEC007B681B686FF004021A617B6802221A77FC
:102AFC007B681B689B6903F44073002B03D07868D8
:102B0C0000F072F905E0786800F065F9786800F07B
:102B1C0074F97B6800221A77BB6803F00803002B5A
:102B2C0020D0FB6803F00803002B1BD07B681B68CC
:102B3C006FF008021A617B6804221A777B681B68A5
:102B4C00DB6903F00303002B03D0786800F04CF929
:102B5C0005E0786800F03FF9786800F04EF97B6882
:102B6C0000221A77BB6803F01003002B20D0FB68FF
:102B7C0003F01003002B1BD07B681B686FF0100256
:102B8C001A617B6808221A777B681B68DB6903F47F
:102B9C004073002B03D0786800F026F905E07868C4
:102BAC0000F019F9786800F028F97B6800221A7790
:102BBC00BB6803F00103002B0CD0FB6803F001038E
:102BCC00002B07D07B681B686FF001021A617868D4
:102BDC00FEF760FDBB6803F08003002B0CD0FB6894
:102BEC0003F08003002B07D07B681B686FF080021A
:102BFC001A61786800F06FFABB6803F04003002B91
:102C0C000CD0FB6803F04003002B07D07B681B68DB
:102C1C006FF040021A61786800F0F8F8BB6803F0B6
:102C2C002003002B0CD0FB6803F02003002B07D0F3
:102C3C007B681B686FF020021A61786800F042FA1A
:102C4C0000BF1037BD4680BD80B584B000AF786042
:102C5C0039600023FB737B6893F83C30012B01D166
:102C6C000223B4E07B68012283F83C207B680222BB
:102C7C0083F83D207B681B689B68BB60BB6823F0B6
:102C8C007703BB60BB6823F47F43BB607B681B6826
:102C9C00BA689A603B681B68B3F5005F3ED0B3F529
:102CAC00005F00F28780B3F5805F00F08680B3F59B
:102CBC00805F7FD8702B1AD0702B7BD8602B50D0B4
:102CCC00602B77D8502B3CD0502B73D8402B58D03E
:102CDC00402B6FD8302B64D0302B6BD8202B60D08E
:102CEC00202B67D8002B5CD0102B5AD062E07B686D
:102CFC0018683B6899683B685A683B68DB6800F069
:102D0C006AF97B681B689B68BB60BB6843F0770300
:102D1C00BB607B681B68BA689A604FE07B68186878
:102D2C003B6899683B685A683B68DB6800F053F96C
:102D3C007B681B689A687B681B6842F480429A60C7
:102D4C003CE07B6818683B6859683B68DB681A464E
:102D5C0000F0CAF87B681B685021184600F021F976
:102D6C002CE07B6818683B6859683B68DB681A463E
:102D7C0000F0E8F87B681B686021184600F011F938
:102D8C001CE07B6818683B6859683B68DB681A462E
:102D9C0000F0AAF87B681B684021184600F001F986
:102DAC000CE07B681A683B681B681946104600F0FB
:102DBC00F8F803E00123FB7300E000BF7B680122FD
:102DCC0083F83D207B68002283F83C20FB7B18466F
:102DDC001037BD4680BD80B483B000AF786000BFB3
:102DEC000C37BD4680BC704780B483B000AF7860B0
:102DFC0000BF0C37BD4680BC704780B483B000AFB9
:102E0C00786000BF0C37BD4680BC704780B483B07F
:102E1C0000AF786000BF0C37BD4680BC7047000027
:102E2C0080B485B000AF786039607B681B68FB604C
:102E3C007B682B4A934207D07B68B3F1804F03D059
:102E4C007B68284A934208D1FB6823F07003FB602F
:102E5C003B685B68FA681343FB607B68204A9342CB
:102E6C0007D07B68B3F1804F03D07B681D4A934237
:102E7C0008D1FB6823F44073FB603B68DB68FA689D
:102E8C001343FB60FB6823F080023B685B691343D0
:102E9C00FB607B68FA681A603B689A687B68DA6248
:102EAC003B681A687B689A627B680D4A934203D12F
:102EBC003B681A697B681A637B6801225A617B68DC
:102ECC001B6903F00103002B05D07B681B6923F001
:102EDC0001027B681A6100BF1437BD4680BC704785
:102EEC00002C01400004004080B487B000AFF860B3
:102EFC00B9607A60FB681B6A7B61FB681B6A23F014
:102F0C000102FB681A62FB689B693B613B6923F019
:102F1C00F0033B617B681B013A6913433B617B699E
:102F2C0023F00A037B617A69BB6813437B61FB68FE
:102F3C003A699A61FB687A691A6200BF1C37BD4610
:102F4C0080BC704780B487B000AFF860B9607A601D
:102F5C00FB681B6A7B61FB681B6A23F01002FB6831
:102F6C001A62FB689B693B613B6923F470433B61CC
:102F7C007B681B033A6913433B617B6923F0A00315
:102F8C007B61BB681B017A6913437B61FB683A69FF
:102F9C009A61FB687A691A6200BF1C37BD4680BC17
:102FAC00704780B485B000AF786039607B689B68EF
:102FBC00FB60FB6823F07003FB603A68FB6813430B
:102FCC0043F00703FB607B68FA689A6000BF143714
:102FDC00BD4680BC704780B487B000AFF860B96064
:102FEC007A603B60FB689B687B617B6923F47F4361
:102FFC007B613B681A027B681A43BB6813437A698E
:10300C0013437B61FB687A699A6000BF1C37BD462D
:10301C0080BC704780B485B000AF786039607B6845
:10302C0093F83C30012B01D1022341E07B68012253
:10303C0083F83C207B68022283F83D207B681B6868
:10304C005B68FB607B681B689B68BB60FB6823F05C
:10305C007003FB603B681B68FA681343FB607B687A
:10306C001B68FA685A607B681B68144A934209D043
:10307C007B681B68B3F1804F04D07B681B68104AD7
:10308C0093420CD1BB6823F08003BB603B685B6848
:10309C00BA681343BB607B681B68BA689A607B682C
:1030AC00012283F83D207B68002283F83C2000231A
:1030BC0018461437BD4680BC704700BF002C014039
:1030CC000004004080B483B000AF786000BF0C37C0
:1030DC00BD4680BC704780B483B000AF786000BF41
:1030EC000C37BD4680BC704770B500260C4D0D4C9E
:1030FC00641BA410A64209D100F022F800260A4D48
:10310C000A4C641BA410A64205D170BD55F8043BB3
:10311C0098470136EEE755F8043B98470136F2E73D
:10312C008831000888310008883100088C3100088B
:10313C0003460244934200D1704703F8011BF9E7A0
:10314C00F8B500BFF8BC08BC9E467047F8B500BF88
:08315C00F8BC08BC9E46704758
:103164000000000000000000010203040607080933
:1031740002030405060708090A0B0C0D0E0F1010B4
:043184000102000044
:043188003101000809
:04318C000D01000829
:103190000008014000080140000801404000800094
:1031A000000100000100000001000000010000001B
:1031B000010000000100000001000000010000000B
:1031C00001000000010000000100000001000000FB
:1031D00001000000640000006400000064000000C2
:1031E00001000000010000000A00000005000000CE
:1031F000020000000300000000127A00100000002E
:0432000001000000C9
:0400000508001AD500
:00000001FF
